:020000040800F2
:10000000005000206D1E0008E91D0008EF1D0008CB
:10001000F51D0008FB1D0008011E0008000000007F
:10002000000000000000000000000000071E0008A3
:10003000131E0008000000001F1E00082B1E0008F1
:10004000B51E0008B51E0008B51E0008B51E000844
:10005000B51E0008B51E0008B51E0008B51E000834
:10006000B51E0008B51E0008B51E0008B51E000824
:10007000B51E0008B51E0008B51E0008B51E000814
:10008000B51E0008B51E0008B51E0008B51E000804
:10009000B51E0008B51E0008B51E0008B51E0008F4
:1000A000B51E0008B51E0008B51E0008B51E0008E4
:1000B000B51E0008B51E0008B51E0008B51E0008D4
:1000C000B51E0008B51E0008B51E0008B51E0008C4
:1000D000B51E0008B51E00083D1E0008B51E00082C
:1000E000511E0008B51E0008B51E000800000000E3
:1000F0000000000000000000000000000000000000
:0C01000000000000000000005FF808F1A3
:1001100010B5054C237833B9044B13B10448AFF341
:1001200000800123237010BD70000020000000003B
:100130009C66000808B5034B1BB103490348AFF3A5
:10014000008008BD00000000740000209C660008CC
:1001500081F0004102E000BF83F0004330B54FEA78
:1001600041044FEA430594EA050F08BF90EA020FE5
:100170001FBF54EA000C55EA020C7FEA645C7FEA78
:10018000655C00F0E2804FEA5454D4EB5555B8BF9B
:100190006D420CDD2C4480EA020281EA030382EA0C
:1001A000000083EA010180EA020281EA0303362D9E
:1001B00088BF30BD11F0004F4FEA01314FF4801C71
:1001C0004CEA113102D0404261EB410113F0004F83
:1001D0004FEA03334CEA133302D0524263EB43033A
:1001E00094EA050F00F0A780A4F10104D5F1200ED8
:1001F0000DDB02FA0EFC22FA05F2801841F1000133
:1002000003FA0EF2801843FA05F359410EE0A5F106
:1002100020050EF1200E012A03FA0EFC28BF4CF037
:10022000020C43FA05F3C01851EBE37101F00045ED
:1002300007D54FF0000EDCF1000C7EEB00006EEBFA
:100240000101B1F5801F1BD3B1F5001F0CD3490884
:100250005FEA30004FEA3C0C04F101044FEA4452DB
:1002600012F5800F80F09A80BCF1004F08BF5FEA62
:10027000500C50F1000041EB045141EA050130BD42
:100280005FEA4C0C404141EB0101013C28BFB1F554
:10029000801FE9D291F0000F04BF01460020B1FA9F
:1002A00081F308BF2033A3F10B03B3F120020CDA72
:1002B0000C3208DD02F1140CC2F10C0201FA0CF050
:1002C00021FA02F10CE002F11402D8BFC2F1200CB5
:1002D00001FA02F120FA0CFCDCBF41EA0C0190406B
:1002E000E41AA2BF01EB0451294330BD6FEA0404B4
:1002F0001F3C1CDA0C340EDC04F11404C4F120029F
:1003000020FA04F001FA02F340EA030021FA04F3B0
:1003100045EA030130BDC4F10C04C4F1200220FA07
:1003200002F001FA04F340EA0300294630BD21FA45
:1003300004F0294630BD94F0000F83F4801306BF0B
:1003400081F480110134013D4EE77FEA645C18BFFF
:100350007FEA655C29D094EA050F08BF90EA020F96
:1003600005D054EA000C04BF1946104630BD91EA8E
:10037000030F1EBF0021002030BD5FEA545C05D191
:100380004000494128BF41F0004130BD14F58004D0
:100390003CBF01F5801130BD01F0004545F0FE4144
:1003A00041F470014FF0000030BD7FEA645C1ABF79
:1003B000194610467FEA655C1CBF0B46024650EAB0
:1003C000013406BF52EA033591EA030F41F40021DC
:1003D00030BD00BF90F0000F04BF0021704730B562
:1003E0004FF4806404F132044FF000054FF0000137
:1003F00050E700BF90F0000F04BF0021704730B5F8
:100400004FF4806404F1320410F0004548BF4042CC
:100410004FF000013EE700BF42004FEAE2014FEA21
:1004200031014FEA02701FBF12F07F4393F07F4FFC
:1004300081F06051704732F07F4208BF704793F0FF
:100440007F4F04BF41F40021704730B54FF4607412
:1004500001F0004521F000411CE700BF50EA010215
:1004600008BF704730B54FF000050AE050EA0102BE
:1004700008BF704730B511F0004502D5404261EB2E
:1004800041014FF4806404F132045FEA915C3FF46F
:10049000D8AE4FF003025FEADC0C18BF03325FEA0C
:1004A000DC0C18BF033202EBDC02C2F1200300FABD
:1004B00003FC20FA02F001FA03FE40EA0E0021FAE2
:1004C00002F11444BDE600BF70B54FF0FF0C4CF4D0
:1004D000E06C1CEA11541DBF1CEA135594EA0C0F82
:1004E00095EA0C0F00F0DEF82C4481EA030621EABD
:1004F0004C5123EA4C5350EA013518BF52EA0335F8
:1005000041F4801143F4801338D0A0FB02CE4FF0A9
:100510000005E1FB02E506F00042E0FB03E54FF0D9
:100520000006E1FB03569CF0000F18BF4EF0010ED1
:10053000A4F1FF04B6F5007F64F5407404D25FEACD
:100540004E0E6D4146EB060642EAC62141EA555180
:100550004FEAC52040EA5E504FEACE2EB4F1FD0CC2
:1005600088BFBCF5E06F1ED8BEF1004F08BF5FEA40
:10057000500E50F1000041EB045170BD06F00046F2
:1005800046EA010140EA020081EA0301B4EB5C049F
:10059000C2BFD4EB0C0541EA045170BD41F4801197
:1005A0004FF0000E013C00F3AB8014F1360FDEBFBC
:1005B000002001F0004170BDC4F10004203C35DA98
:1005C0000C341BDC04F11404C4F1200500FA05F31B
:1005D00020FA04F001FA05F240EA020001F00042BC
:1005E00021F0004110EBD37021FA04F642EB060132
:1005F0005EEA430E08BF20EAD37070BDC4F10C045C
:10060000C4F1200500FA04F320FA05F001FA04F21F
:1006100040EA020001F0004110EBD37041F100010B
:100620005EEA430E08BF20EAD37070BDC4F1200516
:1006300000FA05F24EEA020E20FA04F301FA05F27E
:1006400043EA020321FA04F001F0004121FA04F226
:1006500020EA020000EBD3705EEA430E08BF20EAF6
:10066000D37070BD94F0000F0FD101F00046400030
:1006700041EB010111F4801F08BF013CF7D041EAB2
:10068000060195F0000F18BF704703F000465200B6
:1006900043EB030313F4801F08BF013DF7D043EA87
:1006A0000603704794EA0C0F0CEA135518BF95EA3D
:1006B0000C0F0CD050EA410618BF52EA4306D1D1C4
:1006C00081EA030101F000414FF0000070BD50EAE3
:1006D000410606BF1046194652EA430619D094EA6D
:1006E0000C0F02D150EA013613D195EA0C0F05D157
:1006F00052EA03361CBF104619460AD181EA0301AB
:1007000001F0004141F0FE4141F470014FF0000062
:1007100070BD41F0FE4141F4780170BD70B54FF0FD
:10072000FF0C4CF4E06C1CEA11541DBF1CEA13557D
:1007300094EA0C0F95EA0C0F00F0A7F8A4EB05045F
:1007400081EA030E52EA03354FEA013100F0888056
:100750004FEA03334FF0805545EA131343EA12631F
:100760004FEA022245EA111545EA10654FEA0026D4
:100770000EF000419D4208BF964244F1FD0404F58D
:10078000407402D25B084FEA3202B61A65EB0305E9
:100790005B084FEA32024FF480104FF4002CB6EBA6
:1007A000020E75EB030E22BFB61A754640EA0C0026
:1007B0005B084FEA3202B6EB020E75EB030E22BF66
:1007C000B61A754640EA5C005B084FEA3202B6EBA7
:1007D000020E75EB030E22BFB61A754640EA9C0066
:1007E0005B084FEA3202B6EB020E75EB030E22BF36
:1007F000B61A754640EADC0055EA060E18D04FEAF4
:10080000051545EA16754FEA06164FEAC30343EA93
:1008100052734FEAC2025FEA1C1CC0D111F4801F60
:100820000BD141EA00014FF000004FF0004CB6E759
:1008300011F4801F04BF01430020B4F1FD0C88BFF8
:10084000BCF5E06F3FF6AFAEB5EB030C04BFB6EB03
:10085000020C5FEA500C50F1000041EB045170BDF6
:100860000EF0004E4EEA113114EB5C04C2BFD4EB23
:100870000C0541EA045170BD41F480114FF0000EA7
:10088000013C90E645EA060E8DE60CEA135594EA23
:100890000C0F08BF95EA0C0F3FF43BAF94EA0C0F26
:1008A0000AD150EA01347FF434AF95EA0C0F7FF49B
:1008B00025AF104619462CE795EA0C0F06D152EAEF
:1008C00003353FF4FDAE1046194622E750EA4106D3
:1008D00018BF52EA43067FF4C5AE50EA41047FF4E4
:1008E0000DAF52EA43057FF4EBAE12E74FF0FF3C49
:1008F00006E000BF4FF0010C02E000BF4FF0010C1A
:100900004DF804CD4FEA410C7FEA6C5C4FEA430C92
:1009100018BF7FEA6C5C1BD001B050EA410C0CBFE1
:1009200052EA430C91EA030F02BF90EA020F002043
:10093000704710F1000F91EA030F58BF994208BFAA
:1009400090422CBFD8176FEAE37040F00100704767
:100950004FEA410C7FEA6C5C02D150EA013C07D1BE
:100960004FEA430C7FEA6C5CD6D152EA033CD3D009
:100970005DF8040B704700BF8446104662468C4603
:100980001946634600E000BF01B5FFF7B7FF002836
:1009900048BF10F1000F01BD4DF808EDFFF7F4FF5F
:1009A0000CBF012000205DF808FB00BF4DF808EDEA
:1009B000FFF7EAFF34BF012000205DF808FB00BF0D
:1009C0004DF808EDFFF7E0FF94BF012000205DF82F
:1009D00008FB00BF4DF808EDFFF7CEFF94BF0120E4
:1009E00000205DF808FB00BF4DF808EDFFF7C4FFDD
:1009F00034BF012000205DF808FB00BF4FEA410C26
:100A00007FEA6C5C02D150EA013C0AD14FEA430C08
:100A10007FEA6C5C02D152EA033C02D14FF0000045
:100A200070474FF0010070474FEA410212F5001283
:100A300015D211D56FF47873B3EB625212D94FEA25
:100A4000C12343F0004343EA505311F0004F23FA0F
:100A500002F018BF404270474FF00000704750EA64
:100A6000013005D111F0004008BF6FF00040704721
:100A70004FF00000704700BF4FEA4102B2F1E0437F
:100A800024BFB3F5001CDCF1FE5C0DD901F0004C75
:100A90004FEAC0024CEA5070B2F1004F40EB8300C5
:100AA00008BF20F00100704711F0804F21D113F1F1
:100AB0003872BCBF01F00040704741F480114FEA2A
:100AC0005252C2F11802C2F1200C10FA0CF320FAB3
:100AD00002F018BF40F001004FEAC1234FEAD323D0
:100AE00003FA0CFC40EA0C0023FA02F34FEA43033A
:100AF000CCE77FEA625307D150EA01331EBF4FF0C3
:100B0000FE4040F44000704701F0004040F0FE40DD
:100B100040F40000704700BF80F0004002E000BFDA
:100B200081F0004142001FBF5FEA410392EA030FD8
:100B30007FEA226C7FEA236C6AD04FEA1262D2EB22
:100B40001363C1BFD218414048404140B8BF5B4227
:100B5000192B88BF704710F0004F40F4000020F0C0
:100B60007F4018BF404211F0004F41F4000121F0D6
:100B70007F4118BF494292EA030F3FD0A2F1010220
:100B800041FA03FC10EB0C00C3F1200301FA03F15E
:100B900000F0004302D5494260EB4000B0F5000F81
:100BA00013D3B0F1807F06D340084FEA310102F140
:100BB0000102FE2A51D2B1F1004F40EBC25008BFF2
:100BC00020F0010040EA03007047490040EB0000BC
:100BD000013A28BFB0F5000FEDD2B0FA80FCACF1BD
:100BE000080CB2EB0C0200FA0CF0AABF00EBC250EA
:100BF00052421843BCBFD0401843704792F0000FD8
:100C000081F4000106BF80F400000132013BB5E72A
:100C10004FEA41037FEA226C18BF7FEA236C21D0A0
:100C200092EA030F04D092F0000F08BF0846704705
:100C300090EA010F1CBF0020704712F07F4F04D1D3
:100C4000400028BF40F00040704712F100723CBFE6
:100C500000F50000704700F0004343F0FE4040F410
:100C6000000070477FEA226216BF08467FEA2363CE
:100C70000146420206BF5FEA412390EA010F40F4B9
:100C8000800070474FF0000304E000BF10F0004305
:100C900048BF40425FEA000C08BF704743F09643EC
:100CA00001464FF000001CE050EA010208BF704707
:100CB0004FF000030AE000BF50EA010208BF70478E
:100CC00011F0004302D5404261EB41015FEA010CA3
:100CD00002BF84460146002043F0B64308BFA3F19B
:100CE0008053A3F50003BCFA8CF2083AA3EBC2537D
:100CF00010DB01FA02FC634400FA02FCC2F120029C
:100D0000BCF1004F20FA02F243EB020008BF20F0D2
:100D10000100704702F1200201FA02FCC2F1200238
:100D200050EA4C0021FA02F243EB020008BF20EA2D
:100D3000DC7070474FF0FF0C1CEAD0521EBF1CEA5B
:100D4000D15392EA0C0F93EA0C0F6FD01A4480EA49
:100D5000010C400218BF5FEA41211ED04FF0006332
:100D600043EA501043EA5111A0FB01310CF000405E
:100D7000B1F5000F3EBF490041EAD3715B0040EA84
:100D8000010062F17F02FD2A1DD8B3F1004F40EB54
:100D9000C25008BF20F00100704790F0000F0CF027
:100DA000004C08BF49024CEA502040EA51207F3AEB
:100DB000C2BFD2F1FF0340EAC250704740F40000C6
:100DC0004FF00003013A5DDC12F1190FDCBF00F0B7
:100DD00000407047C2F10002410021FA02F1C2F165
:100DE000200200FA02FC5FEA310040F1000053EA01
:100DF0004C0308BF20EADC70704792F0000F00F04F
:100E0000004C02BF400010F4000F013AF9D040EA54
:100E10000C0093F0000F01F0004C02BF490011F4E8
:100E2000000F013BF9D041EA0C018FE70CEAD153E6
:100E300092EA0C0F18BF93EA0C0F0AD030F0004C66
:100E400018BF31F0004CD8D180EA010000F000401A
:100E5000704790F0000F17BF90F0004F084691F0D8
:100E6000000F91F0004F14D092EA0C0F01D1420212
:100E70000FD193EA0C0F03D14B0218BF084608D1DB
:100E800080EA010000F0004040F0FE4040F4000025
:100E9000704740F0FE4040F4400070474FF0FF0CB8
:100EA0001CEAD0521EBF1CEAD15392EA0C0F93EAFF
:100EB0000C0F69D0A2EB030280EA010C49024FEA51
:100EC000402037D04FF0805343EA111143EA10130A
:100ED0000CF000408B4238BF5B0042F17D024FF4C2
:100EE000000C8B4224BF5B1A40EA0C00B3EB510F9D
:100EF00024BFA3EB510340EA5C00B3EB910F24BF86
:100F0000A3EB910340EA9C00B3EBD10F24BFA3EB0A
:100F1000D10340EADC001B0118BF5FEA1C1CE0D1D2
:100F2000FD2A3FF650AF8B4240EBC25008BF20F085
:100F3000010070470CF0004C4CEA50207F32C2BFD9
:100F4000D2F1FF0340EAC250704740F400004FF076
:100F50000003013A37E792F0000F00F0004C02BFA7
:100F6000400010F4000F013AF9D040EA0C0093F071
:100F7000000F01F0004C02BF490011F4000F013BCB
:100F8000F9D041EA0C0195E70CEAD15392EA0C0F33
:100F900008D142027FF47DAF93EA0C0F7FF470AF6B
:100FA000084676E793EA0C0F04D14B023FF44CAFAE
:100FB00008466EE730F0004C18BF31F0004CCAD143
:100FC00030F000427FF45CAF31F000437FF43CAF7F
:100FD0005FE700BF4FF0FF3C06E000BF4FF0010CA1
:100FE00002E000BF4FF0010C4DF804CD4FEA400283
:100FF0004FEA41037FEA226C18BF7FEA236C11D0CD
:1010000001B052EA530C18BF90EA010F58BFB2EB7F
:10101000030088BFC81738BF6FEAE17018BF40F0FF
:10102000010070477FEA226C02D15FEA402C05D1B3
:101030007FEA236CE4D15FEA412CE1D05DF8040B38
:10104000704700BF844608466146FFE70FB5FFF7CB
:10105000C9FF002848BF10F1000F0FBD4DF808ED83
:10106000FFF7F4FF0CBF012000205DF808FB00BF74
:101070004DF808EDFFF7EAFF34BF012000205DF8CE
:1010800008FB00BF4DF808EDFFF7E0FF94BF01201B
:1010900000205DF808FB00BF4DF808EDFFF7D2FF18
:1010A00094BF012000205DF808FB00BF4DF808ED5B
:1010B000FFF7C8FF34BF012000205DF808FB00BF28
:1010C0004FEA4002B2F1FE4F0FD34FF09E03B3EB55
:1010D00012620DD94FEA002343F0004310F0004F95
:1010E00023FA02F018BF404270474FF000007047EB
:1010F00012F1610F01D1420205D110F0004008BF8A
:101100006FF0004070474FF00000704780B58CB022
:1011100000AFF860B9601346FB71FB68BB62FB79F6
:10112000FB854FF00001B868FFF7A2FF0346002BD4
:101130000BD0B7F92E30FA6813442D221A70B7F984
:101140002E309BB201339BB2FB85B868FFF7B8FF26
:101150000346002BB8BF5B427B627B6A002B2CDD11
:10116000B7F92E30BA6A13440A221946786A03F096
:10117000DFFB7B6A002BB8BF5B421846FFF73AF9EA
:1011800002460B461046194603F02EFD02460B465A
:101190001046194603F018FC02460B461046194645
:1011A000FFF742FC034687F8233097F823309AB2C2
:1011B000FB8D13449BB2FB850BE0B7F92E30FA6828
:1011C000134430221A70B7F92E309BB201339BB210
:1011D000FB85B7F92E30FA6813442E221A70B7F93E
:1011E0002E309BB201339BB2FB85786AFFF74EFD30
:1011F0000346FB61BB6823F00043BB61F969B86932
:10120000FFF78EFC034618491846FFF793FD034687
:101210001846FFF701F902460B461046194603F03F
:1012200053FC02460B4610461946FFF725FC0346C1
:101230007B617869FFF744FF03467B82B7F91200B0
:10124000B7F92E30BA6A13440A22194603F070FB2C
:10125000B7F92E309BB201339BB2FB85FB8DDBB21D
:1012600018463037BD4680BD0000204180B584B0AF
:1012700002AF03463960FB711346BB7102E00F48B1
:1012800001F0EBFEFB799BB25B0099B2BB799BB29C
:101290004FF47A7200923A68084801F073FB0346F3
:1012A000002BECD100BF054801F0CAFE0346202BFD
:1012B000F9D100BF00BF0837BD4680BD8C000020BB
:1012C00080B584B002AF3A601A460346FB710B4604
:1012D000BB7113467B71B91DFB7901221846FFF7DC
:1012E000C5FF02E00F4801F0B8FEFB799BB25B003E
:1012F00099B27B799BB24FF47A7200923A680948AE
:1013000001F03EFC0346002BECD100BF054801F084
:1013100097FE0346202BF9D100BF00BF0837BD461A
:1013200080BD00BF8C00002080B582B000AF6B2371
:101330003B7000237B703B46022219466820FFF772
:1013400095FF1B233B7008237B703B460222194606
:101350006820FFF78BFF1C233B7010237B703B46FC
:10136000022219466820FFF781FF0022402107482A
:1013700001F070F9064B01225A73054B4FF0000241
:101380001A6000BF0837BD4680BD00BF000C014099
:101390002401002080B588B000AF786007F1080212
:1013A0000E233B216820FFF78BFF0023FB611AE02F
:1013B000FB695B0020333B4413F8183C1B029AB2D4
:1013C000FB695B00013320333B4413F8183C9BB2AC
:1013D000134499B2FB695B007A6813440AB21A801D
:1013E000FB690133FB61FB69022BE1DD0423BB6177
:1013F0001DE0BB695B0020333B4413F8183C1B0223
:101400009AB2BB695B00013320333B4413F8183CAC
:101410009BB2134499B2BB6903F10043013B5B00EB
:101420007A6813440AB21A80BB690133BB61BB6995
:10143000062BDEDD00BF00BF2037BD4680BD0000AB
:1014400090B587B000AF4FF4C87000F097FD4FF42F
:101450007A737B8200237B6139E03B1D1846FFF7DE
:1014600099FF444B1C68B7F90A301846FFF70EFC89
:10147000034619462046FFF755FB03461A463D4BE7
:101480001A603C4B5C68B7F90C301846FFF7FEFB5E
:10149000034619462046FFF745FB03461A46354BDF
:1014A0005A60344B9C68B7F90E301846FFF7EEFBD4
:1014B000034619462046FFF735FB03461A462D4BD7
:1014C0009A60032000F05AFD7B6901337B617B8ABF
:1014D0007A699A42C1DB274B1C687B8A1846FFF762
:1014E000D5FB034619462046FFF7D8FC03461A46AB
:1014F000204B1A601F4B5C687B8A1846FFF7C6FBBF
:10150000034619462046FFF7C9FC03461A46194B05
:101510005A60184B9C687B8A1846FFF7B7FB034656
:1015200019462046FFF7BAFC03461A46114B9A604B
:10153000104B01221A73012210210F4801F08AF882
:101540004FF4167000F01AFD002210210A4801F035
:1015500081F84FF4167000F011FD012210210648A9
:1015600001F078F8034B01225A7300BF1C37BD46C7
:1015700090BD00BF240100200008014000000000D1
:10158000B0B586B000AFC04B1B7B002B00F0E281F2
:10159000BE4B1B680133BD4A1360BC4B1B68132B49
:1015A00040F3D88101224021B94801F053F8B948ED
:1015B000FFF7F0FEB74BB3F908301846FFF766FBAC
:1015C0000246B14B5B6819461046FFF7A9FA03467D
:1015D0007B617869FEF720FFA3A3D3E90023FFF71F
:1015E0009DF802460B46104619464FF00002AA4BE2
:1015F000FFF794F802460B4610461946FFF73CFAEF
:1016000003467B61A04B1B6979691846FFF78AFA8C
:1016100003461A469C4B1A619B4B5B691846FEF7C2
:10162000FBFE04460D469B4BB3F906301846FFF708
:101630002DFB0246944B1B6819461046FFF770FAC3
:1016400003461846FEF7E8FE87A3D3E90023FFF719
:1016500065F802460B46104619464FF000028E4BC5
:10166000FFF75CF802460B4620462946FEF776FD5A
:1016700002460B4610461946FFF7FEF90346824A1A
:101680005361844BB3F90A301846FFF7FFFA02465C
:101690007D4B9B6819461046FFF742FA03461846F1
:1016A000FEF7BAFE70A3D3E90023FFF737F802462E
:1016B0000B46104619464FF00002774BFFF72EF805
:1016C00002460B4610461946FFF7D6F903463B6122
:1016D0006D4B9B6939691846FFF724FA03461A4691
:1016E000694B9A613869FEF797FE61A3D3E900233D
:1016F000FFF77AF90346002B40D03869FEF78CFEDD
:101700005DA3D3E90023FEF7DFFE02460B46104639
:1017100019464FF00002614BFFF700F802460B46F6
:101720001046194603F018FA02460B4610461946B1
:10173000FFF7A2F90346FB60534B5C69524B1B69F0
:10174000F9681846FFF7F6FA034619462046FFF7F0
:10175000E9F903461A464C4B5A614B4B1C694A4BFC
:101760005B69F9681846FFF7E5FA03461946204613
:10177000FFF7D6F903461A46434B1A61454BB3F9B6
:1017800002301846FEF736FE04460D46414BB3F9CB
:1017900000301A463F4BB3F9003003FB02F23D4BD9
:1017A000B3F9043019463B4BB3F9043001FB03F3A2
:1017B00013441846FEF71EFE02460B461046194615
:1017C00003F044FA02460B462046294603F00AFA83
:1017D0004FF00002314BFEF777FE02460B461046F3
:1017E000194627A3D3E90023FEF798FF02460B46CC
:1017F00010461946FFF740F90346BB60254BB3F985
:1018000000301846FEF7F6FD04460D46214BB3F9AD
:1018100002301A461F4BB3F9023003FB02F21D4B94
:10182000B3F9043019461B4BB3F9043001FB03F341
:1018300013441846FEF7DEFD02460B4610461946D5
:1018400003F004FA02460B462046294603F0CAF983
:101850004FF00002114BFEF737FE02460B461046D2
:1018600019461DE0AFF3008000000000006050400A
:101870007B14AE47E17A843F6F1283C0CA210940CE
:101880006E861BF0F9210940240100208001002010
:10189000000C0140500100200000494000806640DB
:1018A00031A3D3E90023FEF739FF02460B46104669
:1018B0001946FFF7E1F803467B60314B5B69184638
:1018C000FEF7AAFD2AA3D3E90023FEF7FDFD024699
:1018D0000B4614461D46B868FEF79EFD26A3D3E9C5
:1018E0000023FEF7F1FD02460B4620462946FEF78F
:1018F00035FC02460B4610461946FFF7BDF8034675
:101900001F4A53611E4B1B691846FEF785FD18A33D
:10191000D3E90023FEF7D8FD02460B4614461D46C8
:101920007868FEF779FD14A3D3E90023FEF7CCFD18
:1019300002460B4620462946FEF710FC02460B469F
:1019400010461946FFF798F803460D4A13610D4BF0
:1019500000221A60002240210B4800F07BFE00BFED
:101960001837BD46B0BD00BF6E861BF0F921094097
:101970009A9999999999E93F9A9999999999C93F09
:101980002401002080010020000C014080B500AF40
:1019900000F092FA00F05AF800F0F2F800F098F82F
:1019A00000F0C4F8C82000F0E9FAFFF7BDFC4FF4DE
:1019B000FA7000F0E3FAFFF743FD1E4B0D221A7098
:1019C0001C4B0A225A7010211B4800F05BFE1B4B77
:1019D0001B69002219461A48FFF798FB03461A466E
:1019E000184B1A70174B1B781A46154B2C2199541B
:1019F000144B1B780133124A2021D1540F4B196923
:101A0000104B1B780233DBB21A460D48FFF77EFB02
:101A100003461A460B4B1A700A4B1B789BB20233D3
:101A20009AB214230649084802F0B5FA142000F0CF
:101A3000A5FAC8E77C01002000080140240100202D
:101A40005C0100207E010020E000002080B590B005
:101A500000AF07F1180328220021184602F06AFFA0
:101A60003B1D00221A605A609A60DA601A610223F4
:101A7000BB610123BB621023FB6202237B63002353
:101A8000BB634FF4C013FB6307F11803184601F062
:101A90001BFE0346002B01D000F0DCF80F237B6017
:101AA0000223BB600023FB604FF480633B61002393
:101AB0007B613B1D0121184602F088F80346002B8C
:101AC00001D000F0C7F800BF4037BD4680BD000020
:101AD00080B500AF124B134A1A60114B124A5A607C
:101AE0000F4B00229A600E4B0022DA600C4B4FF431
:101AF00080421A610A4B00225A61094B00229A6106
:101B0000074B0022DA61064B00221A62044800F0FB
:101B1000F5FD0346002B01D000F09CF800BF80BD0E
:101B20008C00002000580040A086010080B500AF66
:101B3000114B124A1A60104B4FF4E1325A600E4BAF
:101B400000229A600C4B0022DA600B4B00221A61D3
:101B5000094B0C225A61084B00229A61064B002265
:101B6000DA61054802F0CAF90346002B01D000F003
:101B700071F800BF80BD00BFE000002000440040BD
:101B800080B586B000AF07F1080300221A605A60E2
:101B90009A60DA602B4B9B692A4A43F004039361F5
:101BA000284B9B6903F004037B607B68254B9B6992
:101BB000244A43F008039361224B9B6903F0080316
:101BC0003B603B68002210211F4800F043FD0022CB
:101BD00040211E4800F03EFD1023BB600123FB6046
:101BE00000233B6103237B6107F108031946164874
:101BF00000F0ACFB4FF48053BB60154BFB6000233F
:101C00003B6107F108031946104800F09FFB402391
:101C1000BB600123FB6000233B6103237B6107F171
:101C200008031946094800F091FB002200212820F2
:101C300000F09FFA282000F0B8FA00BF1837BD4620
:101C400080BD00BF0010024000080140000C0140B0
:101C50000000111080B400AF72B600BFFEE70000B4
:101C600080B485B000AF154B9B69144A43F0010363
:101C70009361124B9B6903F00103BB60BB680F4B80
:101C8000DB690E4A43F08053D3610C4BDB6903F0F0
:101C900080537B607B680A4B5B68FB60FB6823F0CA
:101CA000E063FB60FB6843F00073FB60044AFB6881
:101CB000536000BF1437BD4680BC7047001002401F
:101CC0000000014080B588B000AF786007F11003D4
:101CD00000221A605A609A60DA607B681B68164AB4
:101CE000934224D1154B9B69144A43F00803936136
:101CF000124B9B6903F00803FB60FB684FF44063E1
:101D00003B6112237B610323FB6107F1100319463A
:101D10000B4800F01BFB094BDB69084A43F48003C6
:101D2000D361064BDB6903F48003BB60BB6800BF73
:101D30002037BD4680BD00BF005800400010024063
:101D4000000C014080B588B000AF786007F1100347
:101D500000221A605A609A60DA607B681B681F4A2A
:101D6000934237D11E4BDB691D4A43F40033D361E4
:101D70001B4BDB6903F40033FB60FB68184B9B696A
:101D8000174A43F004039361154B9B6903F0040366
:101D9000BB60BB6804233B6102237B610323FB61BF
:101DA00007F1100319460F4800F0D0FA08233B61F1
:101DB00000237B610023BB6107F11003194609482A
:101DC00000F0C4FA00220021262000F0D2F92620DB
:101DD00000F0EBF900BF2037BD4680BD0044004055
:101DE000001002400008014080B400AFFEE780B45C
:101DF00000AFFEE780B400AFFEE780B400AFFEE7BF
:101E000080B400AFFEE780B400AF00BFBD4680BC29
:101E1000704780B400AF00BFBD4680BC704780B43F
:101E200000AF00BFBD4680BC704780B500AF00F07A
:101E300089F800F0D4F900BF80BD000080B500AF84
:101E4000024802F03BF900BF80BD00BFE000002067
:101E500080B500AF4FF4805000F02EFC00BF80BD75
:101E600080B400AF00BFBD4680BC70470C480D4930
:101E70000D4A002302E0D458C4500433C4188C42E5
:101E8000F9D30A4A0A4C002301E013600432A2424B
:101E9000FBD3FFF7E5FF02F00FFDFFF777FD70477B
:101EA0000000002070000020B869000870000020C9
:101EB00088010020FEE7000080B500AF084B1B68DA
:101EC000074A43F010031360032000F047F90F2086
:101ED00000F008F8FFF7C4FE0023184680BD00BFDD
:101EE0000020024080B582B000AF7860124B1A68C3
:101EF000124B1B7819464FF47A73B3FBF1F3B2FB24
:101F0000F3F3184600F05FF90346002B01D00123DC
:101F10000EE07B680F2B0AD8002279684FF0FF3063
:101F200000F027F9064A7B681360002300E00123D4
:101F300018460837BD4680BD00000020080000207C
:101F40000400002080B400AF054B1B781A46054BF7
:101F50001B681344034A136000BFBD4680BC704732
:101F6000080000208401002080B400AF024B1B68F1
:101F70001846BD4680BC70478401002080B584B0FF
:101F800000AF7860FFF7F0FFB8607B68FB60FB682C
:101F9000B3F1FF3F05D00A4B1B781A46FB68134488
:101FA000FB6000BFFFF7E0FF0246BB68D31AFA6888
:101FB0009A42F7D800BF00BF1037BD4680BD00BFB2
:101FC0000800002080B485B000AF78607B6803F023
:101FD0000703FB600C4BDB68BB60BA684FF6FF037E
:101FE0001340BB60FB681A02BB68134343F0BF6336
:101FF00043F40033BB60044ABB68D36000BF1437AE
:10200000BD4680BC704700BF00ED00E080B400AF6B
:10201000044BDB681B0A03F007031846BD4680BC6F
:10202000704700BF00ED00E080B483B000AF03460E
:10203000FB7197F90730002B0BDBFB7903F01F02D4
:10204000064997F907305B09012000FA02F241F8CE
:10205000232000BF0C37BD4680BC704700E100E084
:1020600080B483B000AF03463960FB7197F9073045
:10207000002B0ADB3B68DAB20C4997F907301201F2
:10208000D2B20B4483F800230AE03B68DAB2084975
:10209000FB7903F00F03043B1201D2B20B441A7612
:1020A00000BF0C37BD4680BC704700BF00E100E0B8
:1020B00000ED00E080B489B000AFF860B9607A60EC
:1020C000FB6803F00703FB61FB69C3F10703042B03
:1020D00028BF0423BB61FB690433062B02D9FB69CB
:1020E000033B00E000237B614FF0FF32BB6902FA43
:1020F00003F3DA43BB681A407B699A404FF0FF3123
:102100007B6901FA03F3D9437B680B4013431846FC
:102110002437BD4680BC704780B582B000AF786080
:102120007B68013BB3F1807F01D301230FE00A4AB2
:102130007B68013B53600F214FF0FF30FFF790FFAA
:10214000054B00229A60044B07221A6000231846B0
:102150000837BD4680BD00BF10E000E080B582B00A
:1021600000AF78607868FFF72DFF00BF0837BD46E5
:1021700080BD80B586B000AF0346B9607A60FB735E
:1021800000237B61FFF742FF78617A68B96878695C
:10219000FFF790FF024697F90F3011461846FFF7F8
:1021A0005FFF00BF1837BD4680BD80B582B000AF6D
:1021B0000346FB7197F907301846FFF735FF00BF5C
:1021C0000837BD4680BD80B582B000AF78607868C2
:1021D000FFF7A2FF034618460837BD4680BD80B50D
:1021E00000AFFFF7CDF900BF80BD80B485B000AF70
:1021F00078600023FB737B6893F82130022B08D0B2
:102200007B6804229A637B68002283F820200123E4
:1022100020E07B681B681A687B681B6822F00E024E
:102220001A607B681B681A687B681B6822F00102D1
:102230001A607B681A6C7B68DB6B012101FA02F281
:102240005A607B68012283F821207B68002283F892
:102250002020FB7B18461437BD4680BC7047000029
:1022600080B584B000AF78600023FB737B6893F87F
:102270002130022B05D07B6804229A630123FB7373
:1022800051E07B681B681A687B681B6822F00E02AD
:102290001A607B681B681A687B681B6822F0010261
:1022A0001A607B681B68224A934229D07B681B68AE
:1022B000204A934222D07B681B681F4A93421AD05F
:1022C0007B681B681D4A934212D07B681B681C4ABE
:1022D00093420AD07B681B681A4A934202D14FF49A
:1022E00080130EE04FF080730BE04FF4803308E072
:1022F0004FF4805305E04FF4807302E0102300E0B8
:102300000123114A53607B68012283F821207B68F6
:10231000002283F820207B685B6B002B03D07B6856
:102320005B6B78689847FB7B18461037BD4680BDCD
:10233000080002401C0002403000024044000240FD
:10234000580002406C0002400000024080B48BB094
:1023500000AF7860396000237B6200233B6269E153
:1023600001227B6A02FA03F3FB613B681B68FA698E
:102370001340BB61BA69FB699A4240F058813B68DF
:102380005B689A4A93425ED0984A934275D8984ABD
:10239000934258D0964A93426FD8964A934252D06D
:1023A000944A934269D8944A93424CD0924A9342B9
:1023B00063D8924A934246D0904A93425DD8122BFA
:1023C0002AD8122B59D801A252F823F0472400082A
:1023D0002124000833240008752400087B24000809
:1023E0007B2400087B2400087B2400087B24000851
:1023F0007B2400087B2400087B2400087B24000841
:102400007B2400087B2400087B2400087B24000830
:10241000292400083D240008794A934213D02CE077
:102420003B68DB683B6229E03B68DB6804333B6266
:1024300024E03B68DB6808333B621FE03B68DB68F5
:102440000C333B621AE03B689B68002B02D10423EB
:102450003B6213E03B689B68012B05D108233B627C
:102460007B68FA691A6109E008233B627B68FA69B4
:102470005A6103E000233B6200E000BFBB69FF2B11
:1024800001D87B6801E07B6804337B61BB69FF2B6B
:1024900002D87B6A9B0002E07B6A083B9B003B61A1
:1024A0007B691A680F213B6901FA03F3DB431A4089
:1024B000396A3B6901FA03F31A437B691A603B6886
:1024C0005B6803F08053002B00F0B1804D4B9B699B
:1024D0004C4A43F0010393614A4B9B6903F00103AB
:1024E000BB60BB68484A7B6A9B08023352F82330C2
:1024F000FB607B6A03F003039B000F2202FA03F3E5
:10250000DB43FA681340FB607B68404A934213D078
:102510007B683F4A93420DD07B683E4A934207D086
:102520007B683D4A934201D1032306E0042304E083
:10253000022302E0012300E000237A6A02F0030292
:1025400092009340FA681343FB602F497B6A9B0813
:102550000233FA6841F823203B685B6803F4803358
:10256000002B06D02D4B1A682C49BB6913430B6016
:1025700006E02A4B1A68BB69DB43284913400B600D
:102580003B685B6803F40033002B06D0234B5A688A
:102590002249BB6913434B6006E0204B5A68BB6974
:1025A000DB431E4913404B603B685B6803F48013B8
:1025B000002B06D0194B9A681849BB6913438B60EE
:1025C00006E0164B9A68BB69DB43144913408B60E5
:1025D0003B685B6803F40013002B21D00F4BDA68D3
:1025E0000E49BB691343CB6021E000BF00003210ED
:1025F0000000311000002210000021100000121015
:1026000000001110001002400000014000080140CD
:10261000000C014000100140001401400004014082
:102620000B4BDA68BB69DB4309491340CB607B6A1B
:1026300001337B623B681A687B6A22FA03F3002B42
:102640007FF48EAE00BF00BF2C37BD4680BC704704
:102650000004014080B483B000AF78600B467B80FB
:1026600013467B707B78002B03D07A887B681A61D5
:1026700003E07B881A047B681A6100BF0C37BD46F3
:1026800080BC704780B485B000AF78600B467B801B
:102690007B68DB68FB607A88FB6813401A04FB6880
:1026A000D9437B880B401A437B681A6100BF1437FB
:1026B000BD4680BC7047000080B582B000AF0346C5
:1026C000FB80084B5A69FB881340002B06D0054A53
:1026D000FB885361FB88184600F006F800BF0837F6
:1026E000BD4680BD0004014080B483B000AF034606
:1026F000FB8000BF0C37BD4680BC704780B584B0FE
:1027000000AF78607B68002B01D101232BE17B684F
:1027100093F83D30DBB2002B06D17B68002283F8B2
:102720003C207868FFF7CEFA7B68242283F83D20AE
:102730007B681B681A687B681B6822F001021A60BC
:102740007B681B681A687B681B6842F400421A6049
:102750007B681B681A687B681B6822F400421A6059
:1027600001F086FBF8607B685B68814A934207D87A
:10277000FB68804A934294BF01230023DBB206E04A
:10278000FB687D4A934294BF01230023DBB2002BF8
:1027900001D00123E7E0FB68784AA2FB03239B0CEE
:1027A000BB607B681B685B6823F03F017B681B682C
:1027B000BA680A435A607B681B681B6A23F03F01B2
:1027C0007B685B686A4A934202D8BB68013309E0C0
:1027D000BB684FF4967202FB03F3694AA2FB032322
:1027E0009B0901337A6812680B4313627B681B688C
:1027F000DB6923F44F4222F0FF027B685B685C498F
:102800008B4219D8FB68591E7B685B685B00B1FB83
:10281000F3F3591C40F6FC730B40002B0AD0FB6805
:10282000591E7B685B685B00B1FBF3F30133C3F3B4
:102830000B0351E004234FE07B689B68002B11D110
:10284000FB68581E7B6859680B465B000B44B0FB65
:10285000F3F30133C3F30B03002B0CBF012300235D
:10286000DBB212E0FB68581E7B6859680B469B0080
:102870000B4499000B44B0FBF3F30133C3F30B0398
:10288000002B0CBF01230023DBB2002B01D001235E
:1028900022E07B689B68002B0ED1FB68581E7B688A
:1028A00059680B465B000B44B0FBF3F30133C3F3F1
:1028B0000B0343F400430FE0FB68581E7B68596824
:1028C0000B469B000B4499000B44B0FBF3F3013320
:1028D000C3F30B0343F44043796809681343CB61A6
:1028E0007B681B681B6823F0C0017B68DA697B6822
:1028F0001B6A1A437B681B680A431A607B681B6863
:102900009B6823F4034323F0FF037A6811697A6814
:10291000D26811437A6812680B4393607B681B6826
:10292000DB6823F0FF017B685A697B689B691A4367
:102930007B681B680A43DA607B681B681A687B68DF
:102940001B6842F001021A607B6800221A647B68EF
:10295000202283F83D207B6800221A637B680022D6
:1029600083F83E20002318461037BD4680BD00BFC7
:10297000A08601007F841E00FF083D0083DE1B430C
:10298000D34D621080B588B002AFF8607A601A4605
:102990000B467B8113463B81FFF7E6FA7861FB68C3
:1029A00093F83D30DBB2202B40F0E0807B69009350
:1029B000192301227049F86800F0AAFC0346002B95
:1029C00001D00223D3E0FB6893F83C30012B01D106
:1029D0000223CCE0FB68012283F83C20FB681B68E3
:1029E0001B6803F00103012B07D0FB681B681A6802
:1029F000FB681B6842F001021A60FB681B681A68DA
:102A0000FB681B6822F400621A60FB68212283F8CD
:102A10003D20FB68102283F83E20FB6800221A64E8
:102A2000FB687A685A62FB683A895A85FB685B8D55
:102A30009AB2FB681A85FB68504ADA6279897B6929
:102A40003A6AF86800F014FB0346002B01D001231A
:102A50008DE000233B61FB681B685B693B61FB68A1
:102A60001B689B693B613B6966E07A69396AF86873
:102A700000F024FD0346002B0DD0FB681B6C042BDB
:102A800007D1FB681B681A68FB681B6842F4007278
:102A90001A6001236BE0FB685B6A1A78FB681B68AD
:102AA0001A61FB685B6A5A1CFB685A62FB685B8DA3
:102AB0009BB2013B9AB2FB685A85FB681B8D013BB8
:102AC0009AB2FB681A85FB681B685B6903F0040314
:102AD000042B1BD1FB681B8D002B17D0FB685B6A96
:102AE0001A78FB681B681A61FB685B6A5A1CFB68F2
:102AF0005A62FB685B8D9BB2013B9AB2FB685A85B8
:102B0000FB681B8D013B9AB2FB681A857A69396AAA
:102B1000F86800F014FD0346002B0DD0FB681B6C19
:102B2000042B07D1FB681B681A68FB681B6842F41A
:102B300000721A6001231AE0FB681B8D002B94D1F0
:102B4000FB681B681A68FB681B6842F400721A6015
:102B5000FB68202283F83D20FB68002283F83E209A
:102B6000FB68002283F83C20002300E00223184683
:102B70001837BD4680BD00BF020010000000FFFFF7
:102B800080B58CB002AFF8607A601A460B467B8144
:102B900013463B8100233B62FFF7E6F97862FB684E
:102BA00093F83D30DBB2202B40F03F827B6A0093EC
:102BB000192301227F49F86800F0AAFB0346002B85
:102BC00001D0022332E2FB6893F83C30012B01D1A3
:102BD00002232BE2FB68012283F83C20FB681B6880
:102BE0001B6803F00103012B07D0FB681B681A6800
:102BF000FB681B6842F001021A60FB681B681A68D8
:102C0000FB681B6822F400621A60FB68222283F8CA
:102C10003D20FB68102283F83E20FB6800221A64E6
:102C2000FB687A685A62FB683A895A85FB685B8D53
:102C30009AB2FB681A85FB685F4ADA6279897B6A17
:102C40003A6BF86800F096FA0346002B01D0012396
:102C5000ECE1FB681B8D002B13D10023FB61FB68AB
:102C60001B685B69FB61FB681B689B69FB61FB6917
:102C7000FB681B681A68FB681B6842F400721A60E4
:102C8000C0E1FB681B8D012B1ED1FB681B681A6815
:102C9000FB681B6822F480621A6072B600BF0023D2
:102CA000BB61FB681B685B69BB61FB681B689B6958
:102CB000BB61BB69FB681B681A68FB681B6842F450
:102CC00000721A6062B635E0FB681B8D022B1ED1C4
:102CD000FB681B681A68FB681B6842F400621A6094
:102CE00072B600BF00237B61FB681B685B697B6178
:102CF000FB681B689B697B617B69FB681B681A68C2
:102D0000FB681B6822F480621A6062B612E0FB68FE
:102D10001B681A68FB681B6842F480621A60002313
:102D20003B61FB681B685B693B61FB681B689B69D7
:102D30003B613B6966E1FB681B8D032B00F21F8141
:102D4000FB681B8D012B23D17A6A396BF86800F080
:102D500037FC0346002B01D0012367E1FB681B68A9
:102D60001A69FB685B6AD2B21A70FB685B6A5A1C0C
:102D7000FB685A62FB681B8D013B9AB2FB681A859F
:102D8000FB685B8D9BB2013B9AB2FB685A8539E1C7
:102D9000FB681B8D022B52D17B6A00933B6B002298
:102DA0000649F86800F0B4FA0346002B08D0012366
:102DB0003CE100BF020010000000FFFF0400010022
:102DC00072B600BFFB681B681A68FB681B6842F498
:102DD00000721A60FB681B681A69FB685B6AD2B2F2
:102DE0001A70FB685B6A5A1CFB685A62FB681B8D91
:102DF000013B9AB2FB681A85FB685B8D9BB2013B75
:102E00009AB2FB685A8562B600BFFB681B681A69F4
:102E1000FB685B6AD2B21A70FB685B6A5A1CFB687B
:102E20005A62FB681B8D013B9AB2FB681A85FB68EE
:102E30005B8D9BB2013B9AB2FB685A85E2E07B6AEC
:102E400000933B6B00227B49F86800F061FA03466F
:102E5000002B01D00123E9E0FB681B681A68FB68BE
:102E60001B6822F480621A6072B600BFFB681B68A0
:102E70001A69FB685B6AD2B21A70FB685B6A5A1CFB
:102E8000FB685A62FB681B8D013B9AB2FB681A858E
:102E9000FB685B8D9BB2013B9AB2FB685A85664B1F
:102EA0001B68DB08654AA2FB03231A0A13469B0032
:102EB0001344DA00D31A3B623B6A013B3B623B6A34
:102EC000002B18D1FB6800221A63FB68202283F8CC
:102ED0003D20FB68002283F83E20FB681B6C43F01A
:102EE0002002FB681A6462B600BFFB68002283F808
:102EF0003C2001239AE0FB681B685B6903F0040334
:102F0000042BD9D1FB681B681A68FB681B6842F464
:102F100000721A60FB681B681A69FB685B6AD2B2B0
:102F20001A70FB685B6A5A1CFB685A62FB681B8D4F
:102F3000013B9AB2FB681A85FB685B8D9BB2013B33
:102F40009AB2FB685A8562B600BFFB681B681A69B3
:102F5000FB685B6AD2B21A70FB685B6A5A1CFB683A
:102F60005A62FB681B8D013B9AB2FB681A85FB68AD
:102F70005B8D9BB2013B9AB2FB685A8542E07A6A4C
:102F8000396BF86800F01CFB0346002B01D00123CD
:102F90004CE0FB681B681A69FB685B6AD2B21A7066
:102FA000FB685B6A5A1CFB685A62FB681B8D013B1D
:102FB0009AB2FB681A85FB685B8D9BB2013B9AB2A3
:102FC000FB685A85FB681B685B6903F00403042BEC
:102FD00018D1FB681B681A69FB685B6AD2B21A7069
:102FE000FB685B6A5A1CFB685A62FB681B8D013BDD
:102FF0009AB2FB681A85FB685B8D9BB2013B9AB263
:10300000FB685A85FB681B8D002B7FF494AEFB6830
:10301000202283F83D20FB68002283F83E20FB68D5
:10302000002283F83C20002300E0022318462837C2
:10303000BD4680BD040001000000002089B5F814E1
:1030400080B483B000AF78607B6893F83D30DBB22A
:1030500018460C37BD4680BC704780B483B000AFC3
:1030600078607B681B6C18460C37BD4680BC704787
:1030700080B588B002AFF8607A603B600B467B8118
:10308000FB68DB6A7B617B69082B06D07B69012BBF
:1030900003D07B6913F5803F08D1FB681B681A6871
:1030A000FB681B6842F480721A600BE0FB681B6BC4
:1030B000122B07D1FB681B681A68FB681B6842F477
:1030C00080721A603B6800937B6800224FF0011108
:1030D000F86800F01DF90346002B0DD0FB681B6853
:1030E0001B6803F48073B3F5807F03D1FB684FF452
:1030F00000721A64032335E0FB681B69B3F5804F47
:1031000008D17B89DBB21A46FB681B6802F0FE021D
:103110001A611BE07B89DB11DBB203F00603DBB233
:1031200063F00F03DAB2FB681B681A613B687A68C8
:103130000E49F86800F043F90346002B01D0012343
:1031400010E07B89DAB2FB681B681A613B687A6819
:103150000749F86800F033F90346002B01D001233A
:1031600000E0002318461837BD4680BD0800010066
:103170000200010080B588B002AFF8607A603B6061
:103180000B467B81FB68DB6A7B61FB681B681A6806
:10319000FB681B6842F480621A607B69082B06D0CA
:1031A0007B69012B03D07B6913F5803F08D1FB6855
:1031B0001B681A68FB681B6842F480721A600BE097
:1031C000FB681B6B112B07D1FB681B681A68FB6837
:1031D0001B6842F480721A603B6800937B6800228F
:1031E0004FF00111F86800F093F80346002B0DD062
:1031F000FB681B681B6803F48073B3F5807F03D101
:10320000FB684FF400721A64032379E0FB681B69C2
:10321000B3F5804F08D17B89DBB243F00103DAB20A
:10322000FB681B681A615FE07B89DB11DBB203F08E
:103230000603DBB263F00F03DAB2FB681B681A61A6
:103240003B687A683049F86800F0B9F80346002B0B
:1032500001D0012354E07B89DAB2FB681B681A6154
:103260003B687A682949F86800F0A9F80346002B02
:1032700001D0012344E000233B61FB681B685B69CC
:103280003B61FB681B689B693B613B69FB681B6892
:103290001A68FB681B6842F480721A603B680093EE
:1032A0007B6800224FF00111F86800F031F8034606
:1032B000002B0DD0FB681B681B6803F48073B3F50B
:1032C000807F03D1FB684FF400721A64032317E078
:1032D0007B89DB11DBB203F00603DBB263F00E0384
:1032E000DAB2FB681B681A613B687A680749F868BC
:1032F00000F065F80346002B01D0012300E0002315
:1033000018461837BD4680BD0800010002000100C4
:1033100080B584B000AFF860B9603B601346FB71C4
:1033200025E03B68B3F1FF3F21D0FEF71DFE0246CA
:10333000BB69D31A3A689A4202D33B68002B16D174
:10334000FB6800221A63FB68202283F83D20FB689B
:10335000002283F83E20FB681B6C43F02002FB68D0
:103360001A64FB68002283F83C20012323E0BB6839
:103370001B0CDBB2012B0DD1FB681B685B69DA43C8
:10338000BB6813409BB2002B0CBF01230023DBB2B0
:103390001A460CE0FB681B689B69DA43BB68134064
:1033A0009BB2002B0CBF01230023DBB21A46FB7932
:1033B0009A42B6D0002318461037BD4680BD80B56E
:1033C00084B000AFF860B9607A603B6051E0FB68A0
:1033D0001B685B6903F48063B3F5806F23D1FB68DE
:1033E0001B681A68FB681B6842F400721A60FB686D
:1033F0001B686FF480625A61FB6800221A63FB68E5
:10340000202283F83D20FB68002283F83E20FB68E1
:103410001B6C43F00402FB681A64FB68002283F80B
:103420003C20012346E07B68B3F1FF3F21D0FEF74B
:103430009BFD02463B68D31A7A689A4202D37B68A6
:10344000002B16D1FB6800221A63FB68202283F848
:103450003D20FB68002283F83E20FB681B6C43F094
:103460002002FB681A64FB68002283F83C200123D9
:1034700020E0BB681B0CDBB2012B0CD1FB681B6886
:103480005B69DA43BB6813409BB2002B14BF012376
:103490000023DBB20BE0FB681B689B69DA43BB6867
:1034A00013409BB2002B14BF01230023DBB2002B7F
:1034B0008DD1002318461037BD4680BD80B584B03D
:1034C00000AFF860B9607A602DE0F86800F0CEF8DF
:1034D0000346002B01D001232DE0BB68B3F1FF3F71
:1034E00021D0FEF741FD02467B68D31ABA689A42A2
:1034F00002D3BB68002B16D1FB6800221A63FB685D
:10350000202283F83D20FB68002283F83E20FB68E0
:103510001B6C43F02002FB681A64FB68002283F8EE
:103520003C20012307E0FB681B685B6903F0800314
:10353000802BCAD1002318461037BD4680BD80B508
:1035400084B000AFF860B9607A602DE0F86800F0F0
:103550008DF80346002B01D001232DE0BB68B3F1A9
:10356000FF3F21D0FEF700FD02467B68D31ABA6800
:103570009A4202D3BB68002B16D1FB6800221A6363
:10358000FB68202283F83D20FB68002283F83E2060
:10359000FB681B6C43F02002FB681A64FB68002286
:1035A00083F83C20012307E0FB681B685B6903F09C
:1035B0000403042BCAD1002318461037BD4680BD32
:1035C00080B584B000AFF860B9607A6042E0FB6813
:1035D0001B685B6903F01003102B19D1FB681B6893
:1035E0006FF010025A61FB6800221A63FB68202208
:1035F00083F83D20FB68002283F83E20FB681A6CAC
:10360000FB681A64FB68002283F83C20012329E050
:10361000FEF7AAFC02467B68D31ABA689A4202D324
:10362000BB68002B16D1FB6800221A63FB682022BE
:1036300083F83D20FB68002283F83E20FB681B6C6A
:1036400043F02002FB681A64FB68002283F83C20E8
:10365000012307E0FB681B685B6903F04003402B14
:10366000B5D1002318461037BD4680BD80B483B065
:1036700000AF78607B681B685B6903F48063B3F517
:10368000806F1BD17B681B686FF480625A617B6816
:1036900000221A637B68202283F83D207B68002289
:1036A00083F83E207B681B6C43F004027B681A643D
:1036B0007B68002283F83C20012300E000231846A9
:1036C0000C37BD4680BC704780B586B000AF7860CF
:1036D0007B68002B01D1012372E27B681B6803F039
:1036E0000103002B00F08780924B5B6803F00C0312
:1036F000042B0CD08F4B5B6803F00C03082B12D10A
:103700008C4B5B6803F48033B3F5803F0BD1894B5E
:103710001B6803F40033002B6CD07B685B68002BC4
:1037200068D101234CE27B685B68B3F5803F06D12A
:10373000804B1B687F4A43F4803313602EE07B6824
:103740005B68002B0CD17B4B1B687A4A23F48033D7
:103750001360784B1B68774A23F4802313601DE0C5
:103760007B685B68B3F5A02F0CD1724B1B68714A64
:1037700043F4802313606F4B1B686E4A43F480331D
:1037800013600BE06B4B1B686A4A23F480331360B1
:10379000684B1B68674A23F4802313607B685B686F
:1037A000002B13D0FEF7E0FB386108E0FEF7DCFBEE
:1037B00002463B69D31A642B01D9032300E25D4B17
:1037C0001B6803F40033002BF0D014E0FEF7CCFBB1
:1037D000386108E0FEF7C8FB02463B69D31A642B48
:1037E00001D90323ECE1534B1B6803F40033002B96
:1037F000F0D100E000BF7B681B6803F00203002BE0
:1038000063D04C4B5B6803F00C03002B0BD0494B8F
:103810005B6803F00C03082B1CD1464B5B6803F478
:103820008033002B16D1434B1B6803F00203002B9F
:1038300005D07B681B69012B01D00123C0E13D4B02
:103840001B6823F0F8027B685B69DB00394913438E
:103850000B603AE07B681B69002B20D0364B0122BD
:103860001A60FEF781FB386108E0FEF77DFB024637
:103870003B69D31A022B01D90323A1E12D4B1B680D
:1038800003F00203002BF0D02A4B1B6823F0F80250
:103890007B685B69DB00274913430B6015E0264B0F
:1038A00000221A60FEF760FB386108E0FEF75CFB5F
:1038B00002463B69D31A022B01D9032380E11D4B39
:1038C0001B6803F00203002BF0D17B681B6803F038
:1038D0000803002B3AD07B689B69002B19D0174B4B
:1038E00001221A60FEF740FB386108E0FEF73CFB5E
:1038F00002463B69D31A022B01D9032360E10D4B29
:103900005B6A03F00203002BF0D0012000F0D8FA2C
:103910001CE00A4B00221A60FEF726FB38610FE01C
:10392000FEF722FB02463B69D31A022B08D9032378
:1039300046E100BF001002400000424280044242C3
:10394000924B5B6A03F00203002BE9D17B681B6892
:1039500003F00403002B00F0A6800023FB758B4BC3
:10396000DB6903F08053002B0DD1884BDB69874A5C
:1039700043F08053D361854BDB6903F08053BB6018
:10398000BB680123FB75824B1B6803F48073002B1B
:1039900018D17F4B1B687E4A43F480731360FEF797
:1039A000E3FA386108E0FEF7DFFA02463B69D31A12
:1039B000642B01D9032303E1754B1B6803F4807367
:1039C000002BF0D07B68DB68012B06D16F4B1B6AA4
:1039D0006E4A43F0010313622DE07B68DB68002B25
:1039E0000CD16A4B1B6A694A23F001031362674BCF
:1039F0001B6A664A23F0040313621CE07B68DB68E1
:103A0000052B0CD1614B1B6A604A43F0040313621F
:103A10005E4B1B6A5D4A43F0010313620BE05B4B94
:103A20001B6A5A4A23F001031362584B1B6A574A18
:103A300023F0040313627B68DB68002B15D0FEF7CC
:103A400093FA38610AE0FEF78FFA02463B69D31A0F
:103A500041F28832934201D90323B1E04B4B1B6AF8
:103A600003F00203002BEED014E0FEF77DFA38617C
:103A70000AE0FEF779FA02463B69D31A41F288322E
:103A8000934201D903239BE0404B1B6A03F00203DE
:103A9000002BEED1FB7D012B05D13C4BDB693B4A72
:103AA00023F08053D3617B68DB69002B00F08780B3
:103AB000364B5B6803F00C03082B61D07B68DB6935
:103AC000022B46D1334B00221A60FEF74DFA3861C3
:103AD00008E0FEF749FA02463B69D31A022B01D9E6
:103AE00003236DE0294B1B6803F00073002BF0D11A
:103AF0007B681B6AB3F5803F08D1244B5B6823F4D5
:103B000000327B689B68214913434B601F4B5B6805
:103B100023F474127B68196A7B685B6A0B431B4948
:103B200013434B601B4B01221A60FEF71DFA3861EC
:103B300008E0FEF719FA02463B69D31A022B01D9B5
:103B400003233DE0114B1B6803F00073002BF0D002
:103B500035E0104B00221A60FEF706FA386108E0E3
:103B6000FEF702FA02463B69D31A022B01D903235E
:103B700026E0064B1B6803F00073002BF0D11EE01B
:103B80007B68DB69012B07D1012319E0001002409B
:103B900000700040600042420B4B5B68FB60FB68BA
:103BA00003F480327B681B6A9A4206D1FB6803F4F7
:103BB00070127B685B6A9A4201D0012300E0002307
:103BC00018461837BD4680BD0010024080B584B04D
:103BD00000AF786039607B68002B01D10123D0E011
:103BE0006A4B1B6803F007033A689A4210D9674B87
:103BF0001B6823F0070265493B6813430B60634B66
:103C00001B6803F007033A689A4201D00123B8E029
:103C10007B681B6803F00203002B20D07B681B68C5
:103C200003F00403002B05D0594B5B68584A43F45A
:103C3000E06353607B681B6803F00803002B05D02A
:103C4000534B5B68524A43F460535360504B5B687C
:103C500023F0F0027B689B684D4913434B607B68FF
:103C60001B6803F00103002B40D07B685B68012BCD
:103C700007D1474B1B6803F40033002B15D10123F8
:103C80007FE07B685B68022B07D1414B1B6803F028
:103C90000073002B09D1012373E03D4B1B6803F037
:103CA0000203002B01D101236BE0394B5B6823F049
:103CB00003027B685B68364913434B60FEF754F997
:103CC000F8600AE0FEF750F90246FB68D31A41F2A9
:103CD0008832934201D9032353E02D4B5B6803F0F4
:103CE0000C027B685B689B009A42EBD1274B1B68F8
:103CF00003F007033A689A4210D2244B1B6823F062
:103D0000070222493B6813430B60204B1B6803F0FA
:103D100007033A689A4201D0012332E07B681B68AE
:103D200003F00403002B08D0194B5B6823F4E06216
:103D30007B68DB68164913434B607B681B6803F0A4
:103D40000803002B09D0124B5B6823F460527B6898
:103D50001B69DB000E4913434B6000F021F802465B
:103D60000B4B5B681B0903F00F030A49CB5C22FA7B
:103D700003F3094A1360094B1B681846FEF7B2F8B3
:103D8000002318461037BD4680BD00BF002002400A
:103D900000100240C8660008000000200400002057
:103DA00090B48AB000AF294B3C1D0FCB84E80F00C4
:103DB00040F201233B800023FB610023BB61002311
:103DC0007B6200237B6100233B62214B5B68FB61CC
:103DD000FB6903F00C03042B02D0082B03D02BE06B
:103DE0001C4B3B622BE0FB699B0C03F00F03283359
:103DF0003B4413F8243C7B61FB6903F48033002BC4
:103E000012D0134B5B685B0C03F0010328333B4477
:103E100013F8283CBB617B690E4A03FB02F2BB69C5
:103E2000B2FBF3F37B6204E07B690B4A02FB03F312
:103E30007B627B6A3B6202E0064B3B6200BF3B6AEF
:103E400018462837BD4690BC704700BFB8660008CA
:103E50000010024000127A0000093D0080B400AF5B
:103E6000024B1B681846BD4680BC7047000000200E
:103E700080B500AFFFF7F2FF0246054B5B681B0AF7
:103E800003F007030349CB5C22FA03F3184680BD15
:103E900000100240D866000880B500AFFFF7DEFFD3
:103EA0000246054B5B68DB0A03F007030349CB5C62
:103EB00022FA03F3184680BD00100240D8660008BD
:103EC00080B485B000AF78600A4B1B680A4AA2FB39
:103ED00003235B0A7A6802FB03F3FB6000BFFB6805
:103EE0005A1EFA60002BF9D100BF00BF1437BD463F
:103EF00080BC704700000020D34D621080B582B0B6
:103F000000AF78607B68002B01D101233FE07B6824
:103F100093F83D30DBB2002B06D17B68002283F89A
:103F20003C207868FDF70EFF7B68242283F83D2053
:103F30007B681B68DA687B681B6822F40052DA60D1
:103F4000786800F025FC7B681B681A697B681B6831
:103F500022F490421A617B681B685A697B681B686F
:103F600022F02A025A617B681B68DA687B681B684A
:103F700042F40052DA607B6800221A647B682022D7
:103F800083F83D207B68202283F83E2000231846DA
:103F90000837BD4680BD80B58AB002AFF860B96011
:103FA0003B601346FB8000237B61FB6893F83D3048
:103FB000DBB2202B7CD1BB68002B02D0FB88002B0E
:103FC00001D1012375E0FB6893F83C30012B01D14E
:103FD00002236EE0FB68012283F83C20FB6800228C
:103FE0001A64FB68212283F83D20FDF7BDFF78614C
:103FF000FB68FA889A84FB68FA88DA84FB689B6815
:10400000B3F5805F08D1FB681B69002B04D1002346
:10401000FB61BB68BB6103E0BB68FB610023BB6164
:10402000FB68002283F83C202AE03B6800937B6910
:1040300000228021F86800F011FA0346002B01D01D
:10404000032336E0FB69002B0BD1BB691B881A46A2
:10405000FB681B68C2F308025A60BB690233BB618C
:1040600007E0FB691A78FB681B685A60FB6901333B
:10407000FB61FB68DB8C9BB2013B9AB2FB68DA8484
:10408000FB68DB8C9BB2002BCFD13B6800937B6934
:1040900000224021F86800F0E1F90346002B01D02E
:1040A000032306E0FB68202283F83D20002300E084
:1040B000022318462037BD4680BD000080B58AB077
:1040C00000AF78607B681B681B687B627B681B683D
:1040D000DB683B627B681B685B69FB610023BB613B
:1040E00000237B617B6A03F00F03BB61BB69002B7C
:1040F0000DD17B6A03F02003002B08D03B6A03F04C
:104100002003002B03D0786800F099FA7BE1BB69AB
:10411000002B00F0B180FB6903F00103002B05D1F7
:104120003B6A03F49073002B00F0A6807B6A03F0D7
:104130000103002B0AD03B6A03F48073002B05D0E7
:104140007B681B6C43F001027B681A647B6A03F096
:104150000403002B0AD0FB6903F00103002B05D0F8
:104160007B681B6C43F002027B681A647B6A03F075
:104170000203002B0AD0FB6903F00103002B05D0DA
:104180007B681B6C43F004027B681A647B6A03F053
:104190000803002B0FD03B6A03F02003002B04D14F
:1041A000FB6903F00103002B05D07B681B6C43F017
:1041B00008027B681A647B681B6C002B00F01E8170
:1041C0007B6A03F02003002B07D03B6A03F0200337
:1041D000002B02D0786800F032FA7B681B685B69BC
:1041E00003F04003002B14BF01230023DBB27B61EB
:1041F0007B681B6C03F00803002B02D17B69002B4A
:1042000031D0786800F074F97B681B685B6903F053
:104210004003002B23D07B681B685A697B681B68AE
:1042200022F040025A617B689B6B002B13D07B68A5
:104230009B6B764A5A637B689B6B1846FEF710F8B7
:104240000346002B16D07B689B6B5B6B7A68926B86
:10425000104698470EE0786800F0ECF80AE07868BD
:1042600000F0E8F806E0786800F0E4F87B680022E7
:104270001A64C3E000BFC1E07B681B6B012B40F0F8
:10428000A1807B6A03F01003002B00F09B803B6A47
:1042900003F01003002B00F095800023FB607B6887
:1042A0001B681B68FB607B681B685B68FB60FB68C6
:1042B0007B681B685B6903F04003002B4ED07B6872
:1042C0009B6B1B685B683B823B8A002B00F09880ED
:1042D0007B689B8D3A8A9A4280F092807B683A8A0A
:1042E000DA857B689B6B9B69202B2BD07B681B68D6
:1042F000DA687B681B6822F48072DA607B681B686E
:104300005A697B681B6822F001025A617B681B684E
:104310005A697B681B6822F040025A617B68202240
:1043200083F83E207B6800221A637B681B68DA688A
:104330007B681B6822F01002DA607B689B6B184672
:10434000FDF753FF7B689A8D7B68DB8D9BB2D31A98
:104350009BB21946786800F076F851E07B689A8D38
:104360007B68DB8D9BB2D31A7B827B68DB8D9BB233
:10437000002B47D07B8A002B44D07B681B68DA680F
:104380007B681B6822F49072DA607B681B685A694C
:104390007B681B6822F001025A617B68202283F847
:1043A0003E207B6800221A637B681B68DA687B68A2
:1043B0001B6822F01002DA607B8A1946786800F0E8
:1043C00042F81FE07B6A03F08003002B08D03B6AB1
:1043D00003F08003002B03D0786800F0C9F812E0E6
:1043E0007B6A03F04003002B0DD03B6A03F04003CF
:1043F000002B08D0786800F00AF904E000BF02E062
:1044000000BF00E000BF2837BD4680BD4945000819
:1044100080B483B000AF786000BF0C37BD4680BC6D
:10442000704780B483B000AF786000BF0C37BD46E2
:1044300080BC704780B483B000AF786000BF0C3799
:10444000BD4680BC704780B483B000AF78600B4637
:104450007B8000BF0C37BD4680BC704780B584B000
:1044600000AFF860B9603B601346FB712CE0BB699C
:10447000B3F1FF3F28D0BB69002B07D0FDF774FDD7
:1044800002463B68D31ABA699A421DD2FB681B6880
:10449000DA68FB681B6822F4D072DA60FB681B687C
:1044A0005A69FB681B6822F001025A61FB682022EE
:1044B00083F83D20FB68202283F83E20FB68002221
:1044C00083F83C2003230FE0FB681B681A68BB6875
:1044D0001340BA689A420CBF01230023DBB21A468C
:1044E000FB799A42C3D0002318461037BD4680BDE1
:1044F00080B483B000AF78607B681B68DA687B6843
:104500001B6822F49072DA607B681B685A697B68CA
:104510001B6822F001025A617B681B6B012B07D1DB
:104520007B681B68DA687B681B6822F01002DA601F
:104530007B68202283F83E207B6800221A6300BF3C
:104540000C37BD4680BC704780B584B000AF786042
:104550007B685B6AFB60FB680022DA85FB680022EF
:10456000DA84F868FFF766FF00BF1037BD4680BDEC
:1045700080B485B000AF78607B6893F83D30DBB2E3
:10458000212B3ED17B689B68B3F5805F14D17B689B
:104590001B69002B10D17B681B6AFB60FB681B88C2
:1045A0001A467B681B68C2F308025A607B681B6A64
:1045B0009A1C7B681A6208E07B681B6A591C7A683F
:1045C00011621A787B681B685A607B68DB8C9BB22F
:1045D000013B9BB27A681946D184002B0FD17B68CE
:1045E0001B68DA687B681B6822F08002DA607B68EF
:1045F0001B68DA687B681B6842F04002DA600023BF
:1046000000E0022318461437BD4680BC704780B5D1
:1046100082B000AF78607B681B68DA687B681B68D3
:1046200022F04002DA607B68202283F83D2078681F
:10463000FFF7EEFE002318460837BD4680BD80B563
:1046400086B000AF78607B6893F83E30DBB2222BF7
:1046500040F099807B689B68B3F5805F17D17B68D9
:104660001B69002B13D100237B617B689B6A3B6134
:104670007B681B685B689BB2C3F308039AB23B6913
:104680001A807B689B6A9A1C7B689A6226E07B682A
:104690009B6A7B6100233B617B689B68B3F5805F0D
:1046A00007D07B689B68002B0AD17B681B69002BB5
:1046B00006D17B681B685B68DAB27B691A7008E018
:1046C0007B681B685B68DBB203F07F03DAB27B694F
:1046D0001A707B689B6A5A1C7B689A627B68DB8DC8
:1046E0009BB2013B9BB27A681946D185002B48D119
:1046F0007B681B68DA687B681B6822F02002DA603E
:104700007B681B68DA687B681B6822F48072DA6059
:104710007B681B685A697B681B6822F001025A613A
:104720007B68202283F83E207B681B6B012B23D102
:104730007B6800221A637B681B68DA687B681B68E9
:1047400022F01002DA607B681B681B6803F010031C
:10475000102B0AD10023FB607B681B681B68FB6081
:104760007B681B685B68FB60FB687B689B8D1946F8
:104770007868FFF768FE02E07868FFF752FE0023D2
:1047800002E0002300E0022318461837BD4680BD32
:1047900080B584B000AF78607B681B681B6923F428
:1047A00040517B68DA687B681B680A431A617B6842
:1047B0009A687B681B691A437B685B691343BB601B
:1047C0007B681B68DB6823F4B05323F00C037A6822
:1047D0001268B9680B43D3607B681B685B6923F47C
:1047E00040717B689A697B681B680A435A617B68E1
:1047F0001B682C4A934203D1FFF74EFBF86002E09E
:10480000FFF736FBF860FA6813469B0013449A00E2
:104810001A447B685B689B00B2FBF3F3224AA2FB5D
:1048200003235B091901FA6813469B0013449A009D
:104830001A447B685B689B00B2FBF3F21A4BA3FB44
:1048400002035B09642000FB03F3D31A1B0132331C
:10485000154AA2FB03235B0903F0F0031944FA682D
:1048600013469B0013449A001A447B685B689B00C4
:10487000B2FBF3F20C4BA3FB02035B09642000FBC9
:1048800003F3D31A1B013233074AA2FB03235B094C
:1048900003F00F027B681B680A449A6000BF103760
:1048A000BD4680BD003801401F85EB51014B1868A3
:1048B000704700BF0C00002070B500260C4D0D4C59
:1048C000641BA410A64209D101F0E8FE00260A4D9F
:1048D0000A4C641BA410A64205D170BD55F8043BD8
:1048E00098470136EEE755F8043B98470136F2E762
:1048F000B0690008B0690008B0690008B469000830
:10490000931E222B10B50C4604D900231C460B70B5
:10491000204610BD0A2A09D1002807DA2D230B7082
:1049200001214042214400F00DF8F1E70021F9E7B0
:10493000FFF7E6BF03460244934200D1704703F8F5
:10494000011BF9E7F0B58BB005460B466E461D4CD2
:1049500004F1200C374620686168083403C76445B9
:104960003E46F7D1217920683971911E222938609D
:104970004FF0000104D919700B4618460BB0F0BD7A
:10498000581E8446B5FBF2F702FB175628366E44D4
:1049900016F8286C0C460CF8016F2E46B2423D46C4
:1049A00001F10101EED900225A541919A51AAA429F
:1049B000E3DA10F8015F0E780132067001F8015950
:1049C000F4E700BFE06600082DE9F843C1F30A5898
:1049D000A8F2FF36132E02460B4607460C46054644
:1049E00031DC002E12DA34A3D3E90023FBF7B6FB47
:1049F00000220023FBF7F8FF28B1002C56DB3C43D4
:104A000058D000252E4C23462F4625E02D4A42FA49
:104A100006F801EA080202431ED027A3D3E90023C7
:104A2000FBF79CFB00220023FBF7DEFF0028EAD007
:104A3000002CC2BF4FF4801343FA06F6A4190025D8
:104A400024EA0804DFE7332E0ADDB6F5806F03D1D0
:104A5000FBF784FB07460B4638461946BDE8F8834A
:104A60004FF0FF32A8F2134822FA08F818EA000FB4
:104A7000F2D011A3D3E90023FBF770FB002200233F
:104A8000FBF7B2FF0028BED0002C02DD142E03D1AC
:104A9000013425EA0805B6E70123C6F1340603FA16
:104AA00006F63544BD4238BFE418F2E700254FF062
:104AB0000044A8E72546A6E79C7500883CE4377EBD
:104AC0000000F03FFFFF0F00F8B5C1F30A57A7F24F
:104AD000FF34132C02460B4606460D4619DC002C0B
:104AE00009DA013401F0004303D143F07F5343F46A
:104AF000401300222AE01749214103EA0100024342
:104B000010D04FF4002242FA04F4234423EA0103B4
:104B1000EFE7332C09DDB4F5806F03D1FBF71EFB03
:104B200006460D4630462946F8BD4FF0FF31A7F244
:104B30001347F9400842F5D00120C4F1330400FACC
:104B400004F4121928BF1B1822EA01021946104664
:104B5000E6E700BFFFFF0F0030B5204A21F0004319
:104B6000934287B006DC002300220093002301F06B
:104B700093F806E01A4A934205DD02460B46FBF71E
:104B8000EBFA07B030BD02AA00F0DEF900F0030036
:104B9000012809D002280ED0C0B9DDE902010123A5
:104BA0000093DDE90423E2E7DDE90423DDE9020106
:104BB00000F072FCE5E70123DDE902010093DDE985
:104BC000042301F069F801F10041DAE7DDE904238B
:104BD000DDE9020100F060FCF5E700BFFB21E93FE1
:104BE000FFFFEF7F00F058B8F8B504460D4600F01F
:104BF00027F9224606460F462B4620462946FBF754
:104C0000FDFE98B90022002320462946FBF7D8FE76
:104C100060B10022002320462946FBF7BDFE40B1CB
:104C2000FFF744FE22230026064F03603046394634
:104C3000F8BDFFF73BFE212303600348BDE8F840C1
:104C400001F0F2BA0000F0FF04670008F8B506466C
:104C50000F4600F071FB324604460D463B46304697
:104C60003946FBF7CBFE90B9002200233046394687
:104C7000FBF79CFE58B1FFF719FE212300220360C9
:104C8000002310461946FBF749FD04460D46204611
:104C90002946F8BD000000002DE9F84F92469946DC
:104CA00023F000421F46CAF10003DFF884E143EA23
:104CB0000A0342EAD373734504460D4608D84642B8
:104CC00021F00043064343EAD67676458C4608D960
:104CD00052464B4620462946FBF740FA04460D460D
:104CE00019E009F1404606F5801656EA0A0603D196
:104CF000BDE8F84F01F088B8BE1706F0020646EA94
:104D0000D17653EA00010AD1022E67D0032E02D1D8
:104D10003BA5D5E9004520462946BDE8F88F52EA73
:104D20000A0106D1BCF1000F63DA37A5D5E90045C9
:104D3000F1E772450FD1934206F1FF3607D1022EFB
:104D400050D83C4B03EBC606D6E90045E3E7022EFC
:104D50004CD8394BF6E77345E4D09B1AB3F1747F16
:104D60004FEA235220DA002F01DA3C3220DB524690
:104D70004B4620462946FBF7D1FC01F0CFF901F064
:104D800043F804460D46012E15D0022E17D0002EF2
:104D9000C1D01FA3D3E9002320462946FBF7DCF945
:104DA0001DA3D3E9002316E01DA5D5E90045EAE7D8
:104DB00000240025E7E705F100431D46ABE714A3F7
:104DC000D3E9002320462946FBF7C6F902460B46E5
:104DD00011A1D1E90001FBF7BFF97FE70EA5D5E9E5
:104DE000004598E710A5D5E9004594E70024002583
:104DF00091E70BA5D5E900458DE700BFAFF3008033
:104E0000182D4454FB2109C0182D4454FB21F9BF2F
:104E1000075C143326A6A13C182D4454FB210940FD
:104E2000182D4454FB21F93F182D4454FB21E93F30
:104E30000000F07F6867000880670008000000003D
:104E4000B1F5801F2DE9F84304460D460B4626DADE
:104E500021F00042024307D10022002300203649FE
:104E6000FBF75CFCBDE8F883002905DA0246FBF796
:104E700073F900220023F3E70022304BFBF724FBF9
:104E80006FF0350204460D460B462D498B4208DD76
:104E900022462B4620462946FBF760F9E2E700222E
:104EA000F3E71815A0F2FF3010444FEAD07900EB79
:104EB000D070C3F31308FBF79DFAC9F57F73033372
:104EC00048EA035506460F462046294601F034FAC3
:104ED00013A3D3E900238046894630463946FBF7C1
:104EE000F3FA11A3D3E9002304460D464046494690
:104EF000FBF7EAFA02460B4620462946FBF72EF955
:104F00000BA3D3E9002304460D4630463946FBF790
:104F1000DBFA02460B4620462946BDE7AFF3008088
:104F2000362BF111F3FE593D0EE526157BCBDB3F09
:104F300000609F501344D33F000050C30000504313
:104F4000FFFFEF7F000000002DE9F04F1446C44A38
:104F500021F0004A8DB09245049107DC0022002325
:104F6000C4E90001C4E90223002524E0BD4A9245BA
:104F700072DC049BBC4D002BABA3D3E9002336DDD0
:104F8000FBF7EAF8AA4506460F4618D0A8A3D3E9CE
:104F90000023FBF7E1F802460B463046C4E9002344
:104FA0003946FBF7D9F8A2A3D3E90023FBF7D4F8DD
:104FB0000125C4E9020128460DB0BDE8F08F9EA38B
:104FC000D3E90023FBF7C8F89DA3D3E900230646E5
:104FD0000F46FBF7C1F802460B463046C4E90023F2
:104FE0003946FBF7B9F896A3D3E90023DEE7FBF7D0
:104FF000B5F8AA4506460F4616D08DA3D3E900237F
:10500000FBF7ACF802460B463046C4E900233946AC
:10501000FBF7A2F886A3D3E90023FBF79FF84FF034
:10502000FF35C4E90201C6E783A3D3E90023FBF7F8
:1050300095F883A3D3E9002306460F46FBF78EF8C5
:1050400002460B463046C4E900233946FBF784F894
:105050007BA3D3E90023E0E7844A924500F3D5809F
:1050600001F05CF878A3D3E9002306460F46FBF76E
:105070002BFA00227E4BFBF771F8FBF7D5FC0546B7
:10508000FBF7B8F902460B46CDE9022366A3D3E944
:105090000023FBF719FA02460B4630463946FBF768
:1050A0005BF863A3D3E9002380468946DDE902016A
:1050B000FBF70AFA1F2D06460F460EDC6D4B6A1EE3
:1050C00053F82230534508D032463B4640464946C5
:1050D000FBF742F8C4E9000113E03B463246404684
:1050E0004946FBF739F84FEA2A530593C1F30A53AF
:1050F000C3EB1A5ABAF1100F1FDC02460B46C4E983
:105100000023D4E9002A404653464946FBF724F8D9
:1051100032463B46FBF720F80B46C4E902010499EE
:1051200002460029BFF647AF0AF10041C4E9011267
:1051300003F10043E3606D423DE73FA3D3E9002361
:10514000DDE90201FBF7C0F906460F4602460B46B1
:1051500040464946FBF700F802460B4682468B461E
:1051600040464946FAF7F8FF32463B46FAF7F4FF65
:1051700033A3D3E9002306460F46DDE90201FBF71E
:10518000A3F932463B46FAF7E7FF02460B460646CE
:105190000F4650465946FAF7DFFF059AC1F30A5306
:1051A000D31A312B06DC02460B46D046D946C4E959
:1051B0000023A6E726A3D3E90023DDE90201FBF7DC
:1051C00083F906460F4602460B4650465946FAF703
:1051D000C3FF02460B468046894650465946FAF7B9
:1051E000BBFF32463B46FAF7B7FF1BA3D3E90023C8
:1051F00006460F46DDE90201FBF766F932463B46FB
:10520000FAF7AAFF06460F465EE71B4A924535DDD0
:1052100002460B46FAF7A0FFC4E90201C4E9000107
:10522000A2E600BFAFF3008000004054FB21F93F2D
:105230003163621A61B4D03D0000601A61B4D03DA0
:105240007370032E8A19A33B83C8C96D305FE43F96
:105250000000002E8A19A33BC14920259A837B397F
:10526000FB21E93F7BD90240FB21F93FFB2139417A
:105270000000E03F98670008FFFFEF7F4FEA2A55E4
:10528000A5F21645AAEB05510F460646FBF7CCFBE7
:10529000FBF7B0F802460B4630463946CDE9062307
:1052A000FAF75AFF0022224BFBF70EF90F4606468B
:1052B000FBF7BAFBFBF79EF802460B463046394631
:1052C000CDE90823FAF748FF0022194BFBF7FCF859
:1052D0004FF0030800260027CDE90A010DF1280947
:1052E000324679E802013B46C24608F1FF38FBF737
:1052F00053FB0028F4D10F4B2A4601930223214689
:10530000009306A8534600F085F9049B0546002B40
:10531000BFF651AED4E9002101F10043C4E90023F6
:10532000D4E9022101F10043C4E9022303E700BFED
:105330000000704118680008DFF858C12DE9F041FD
:105340003CEA010C06460D460C460A460746034653
:105350000FD102460B46FBF7B7F802460B46304624
:105360002946FAF7FBFE06460D4630462946BDE8BB
:10537000F08100290EDC21F0004C5CEA0707F4D034
:1053800041B102460B46FAF7E7FE02460B46FBF731
:10539000C5F9E8E7211575D0CC074FF00004C2F33A
:1053A0001302A1F2FF3742F480125EBFD90F5B00F7
:1053B00001EB4202D90F01EB4202162520464FF4C1
:1053C00000117F105B0046189642DEBF921B7018DA
:1053D00064185200013D02EBD3724FEA51014FEACB
:1053E0004303F0D129464FF0200E4FF00046824291
:1053F00006EB050C02DC13D19C4511D8BCF1000F63
:105400000CEB060543DA002D41DB00F10108121A0E
:1054100040469C4588BF02F1FF32A3EB0C033144A8
:105420004FEAD37CBEF1010E0CEB42024FEA43037C
:105430004FEA5606DBD1134306D0481C0BBF71461A
:105440000131013421F001016310490803F17F5358
:10545000E20703F5001348BF41F000410E4603EB9D
:10546000075582E7DA0A15385B05002AFAD0D5021B
:105470000AD5C1F1200423FA04F44D1E8B402243C7
:10548000411B89E70846F0E752000131EFE780460B
:10549000BDE700BF0000F07F2DE9F74F21F0004687
:1054A000B6F1795F80460F46CDE9002304DAFBF7B9
:1054B000BBFA002800F0868042463B46404639460B
:1054C000FBF702F800224E4B04460D46FAF7FCFFAC
:1054D0003FA3D3E9002382468B4620462946FAF7AC
:1054E000F3FF3DA3D3E90023FAF738FE22462B460B
:1054F000FAF7EAFF3AA3D3E90023FAF72DFE224692
:105500002B46FAF7E1FF38A3D3E90023FAF726FE8A
:1055100022462B46FAF7D8FF35A3D3E90023FAF742
:105520001BFE22462B46FAF7CFFF33A3D3E9002315
:10553000FAF714FE22462B46FAF7C6FF22462B4600
:10554000FAF7C2FFDDE9002304460D46404639461E
:10555000FAF7BAFF0B46024629462046FAF7FCFD49
:10556000284B80469E4289460EDC02460B4650463A
:105570005946FAF7F1FD024600200B462249FAF798
:10558000EBFD03B0BDE8F08F0024204B22469E4285
:10559000CCBF1F4DA6F500152B4600201A49FAF77F
:1055A000DBFD224606460F462B4650465946FAF783
:1055B000D3FD42464B46FAF7CFFD02460B46304636
:1055C0003946DCE700201049DBE700BFAFF300807D
:1055D000D43888BEE9FAA8BDC4B1B4BD9EEE213E60
:1055E000AD529C804F7E923E9015CB19A001FA3EA1
:1055F0007751C1166CC1563F4C5555555555A53F71
:105600000000E03F3233D33F0000F03F0000E93FAD
:105610000000D23F2DE9F04FADF5197D08930691BA
:10562000B64BA29912F1140F53F82130A8BFD41E23
:105630000293089BB8BF002403F1FF330793A4BF74
:10564000182394FBF3F46FF0170304FB033303EB0D
:10565000020B079A029BA71A03EB0208A39B0025E3
:1056600003EB870900220023099020AE454514DD95
:105670004FF00008089A20AB03EBC2050DF5E07A65
:10568000029B984535DC099B0022A3F10809002301
:105690002F460026CDE900231FE0EF420BD459F836
:1056A0002500CDE90023FAF7A5FEDDE90023E6E8B1
:1056B00002010135DAE710461946F8E7D7E9002379
:1056C000F9E90201FAF700FF02460B46DDE90001A5
:1056D000FAF744FDCDE900010136079B083F9E42E1
:1056E000ECDDDDE9002308F10108EAE802230835D2
:1056F000C6E7029B0CAA02EB83030B93A39B029EBB
:1057000003EB84030A9398AB03EBC60353E92845E4
:1057100070AB03EBC60AD046B1460CAF0097B9F1A7
:10572000000FA8F1080871DC5A462046294600F00F
:1057300083FD00224FF07F5304460D46FAF7C4FE66
:1057400000F0F2FC00226E4BFAF7BEFE02460B465A
:1057500020462946FAF700FD0D460446FBF764F99A
:105760000490FAF747FE02460B4620462946FAF710
:10577000F3FCBBF1000F8046894670DD721E0CAB56
:1057800053F82200049CCBF1180140FA01F31C44A9
:105790008B40C01A0CAB43F82200CBF117030494E2
:1057A00040FA03F30093009B002B66DD00226FF0AC
:1057B0007F411446049B01330493964200F3AC806E
:1057C000BBF1000F07DDBBF1010F00F0B480BBF1AE
:1057D000020F00F0BA80009B022B4ED142464B468E
:1057E00000204849FAF7B8FC80468946002C44D08E
:1057F0005A460020434900F01FFD02460B46404632
:105800004946FAF7A9FC8046894636E000223E4B1D
:1058100020462946FAF758FEFBF706F9FAF7EAFDA3
:1058200002460B46CDE904230022384BFAF74CFE22
:1058300002460B4620462946FAF78EFCFBF7F4F8A1
:10584000009B09F1FF3943F8040B0093DDE90401E3
:10585000D8E90023FAF782FC04460D465FE705D13C
:10586000731E0CAA52F82300C3159BE70022284B95
:10587000FBF7B0F800283ED10090002200234046FC
:105880004946FBF789F8002800F0B180741E2346D2
:10589000002202998B425FDA002A74D00CAB53F8D5
:1058A0002430ABF1180B002B00F09F805A460020EB
:1058B000144900F0C1FCA24606460F464FF000080E
:1058C00070ABDFF84490E50003EBC40BBAF1000FB6
:1058D00080F2C3802646002EC0F2F5800D4B4FF0BB
:1058E000000A079370AB4FF0000B4FF0000803EB7A
:1058F000C609A71BDBE00223009357E76069000895
:10590000000020400000F03F0000703E00007041A9
:105910000000E03F206900083B6844B91BB1C3F1B7
:1059200080733B6001231C460132043745E7CB1AE4
:105930003B602346F7E7721E0CAB53F82230C3F3EB
:1059400016030CA941F8223045E7721E0CAB53F840
:105950002230C3F31503F4E70CA951F82310013BDF
:105960000A4396E7013453F8042D002AFAD0089B25
:1059700006F10108F51820AB03EBC5053444444596
:1059800004DA2646BFE601240B9BECE70A9B4FF0A6
:10599000000953F82800FAF72DFD00260027099B7F
:1059A000C5E90001083B00930495079B994505DD77
:1059B000EAE9026708F101080835E0E7DDF810C000
:1059C000009909F10109F1E9022300917CE8020143
:1059D000CDF810C0FAF778FD02460B46304639463E
:1059E000FAF7BCFB06460F46DFE7013C56E7CBF172
:1059F00000024046494600F01FFC0022A44B04462A
:105A00000D46FAF7E7FFF8B10022A24B20462946DF
:105A1000FAF75AFDFBF708F80746FAF7EBFC002205
:105A20009B4BFAF751FD0B46024629462046FAF7F2
:105A300093FBFAF7F9FF741C0CAB43F826000BF14B
:105A4000180B43F8247031E720462946FAF7ECFF9B
:105A50000CAB344643F8260028E70CAB53F82A0079
:105A6000FAF7C8FC32463B46FAF72EFD42466BE891
:105A700002014B4630463946FAF726FD0AF1FF3A55
:105A800006460F4622E7DDF81CC0F9E80223FCE8D1
:105A90000201CDF81CC0FAF717FD02460B4650462E
:105AA0005946FAF75BFB82468B4608F10108029BD8
:105AB000984501DCB845E6DD48AB03EBC707C7E90D
:105AC00000AB013E07E7A29B022B09DC002B32DC76
:105AD0005AD0049B03F007000DF5197DBDE8F08F47
